:020000040000FA
:0400000007EF00F016
:0A0008005F82F7ED15F0A3EF18F08A
:101000000048656174696E6720202046333A2020CD
:10101000200050756D7020686561742046333A2059
:10102000202000494E43523A423020204E45585429
:101030003A41300054656D703A20202048756D6942
:10104000643A0048554D49443A0054454D503A00E1
:01105000009F
:1010520082C068F083C069F084C06AF085C06BF01A
:1010620086C06CF087C06DF088C06EF089C06FF0EA
:101072008AC070F08BC071F08CC072F020EC19F055
:1010820020EE9FF00C0EEBCFDBFFE806FCE27DECDE
:1010920016F068C0AEF069C0AFF00001AE2908E1F9
:1010A200AF29D8B457EF08F059EF08F070EF0AF003
:1010B200F12906E1F229D8A461EF08F063EF08F004
:1010C2007CEF08F0AEC0F1F0AFC0F2F020EE9FF07E
:1010D20000EE6EF00C0EDBCFEBFFE806FCE2F1C097
:1010E2007BF0F2C07CF0C2EC12F0AEC082F0AFC076
:1010F20083F072EF0AF0F1C0ACF0F2C0ADF0F1C0D3
:101102009DF0F2C09EF0000E9A6F010E996FCAEF29
:1011120008F0ACC09DF0ADC09EF0ACC068F0ADC0B0
:1011220069F0000E6B6F0D0E6A6FF5EC19F0E00EB0
:1011320000016825D96E0C0E6921DA6EDECFACF0A3
:10114200DDCFADF0994B9A2B9DC068F09EC069F03F
:10115200000E6B6F0D0E6A6FF5EC19F0E20E0001D6
:101162006825D96E0C0E6921DA6EDECF8DF0DECFE6
:101172008EF0DECF8FF0DECF90F08D51A15DA16FAA
:101182008E51A259A26F8F51A359A36F9051A459A6
:10119200A46FE851995D9A51800A8D6FE951800AD6
:1011A2008D59D8B0D7EF08F0D9EF08F0FDEF08F06D
:1011B200ACC068F0ADC069F0000E6B6F0D0E6A6FC7
:1011C200F5EC19F0E20E00016825D96E0C0E6921CA
:1011D200DA6EDE50A15DDE50A259DE50A359A45151
:1011E200800A916FDE50800A9159D8B0FBEF08F067
:1011F200FDEF08F08AEF08F0F151AC1907E1F25166
:10120200AD19D8A407EF09F009EF09F0A0EF09F032
:1012120020EE9FF000EE6EF00C0EDBCFEBFFE80647
:10122200FCE2AEC07BF0AFC07CF0C2EC12F0AEC00C
:1012320068F0AFC069F0000E00016B6F0D0E6A6FAF
:10124200F5EC19F0E00E00016825D96E0C0E69214B
:10125200DA6EF1C0DEFFF2C0DDFFAEC0F1F0AFC06A
:10126200F2F0AEC068F0AFC069F0000E6B6F0D0E09
:101272006A6FF5EC19F0E00E00016825D96E0C0ECC
:101282006921DA6EDECF9BF0DDCF9CF0AEC068F054
:10129200AFC069F0000E6B6F0D0E6A6FF5EC19F0BE
:1012A200E20E00016825D96E0C0E6921DA6EDECFDE
:1012B2008DF0DECF8EF0DECF8FF0DECF90F09BC0D0
:1012C20068F09CC069F0000E6B6F0D0E6A6FF5EC52
:1012D20019F0E20E00016825D96E0C0E6921DA6E52
:1012E200DECF91F0DECF92F0DECF93F0DECF94F03E
:1012F2008D51915D956F8E519259966F8F51935981
:10130200976F90519459986F9BC068F09CC069F098
:10131200000E6B6F0D0E6A6FF5EC19F0E20E000114
:101322006825D96E0C0E6921DA6E95C0DEFF96C073
:10133200DEFF97C0DEFF98C0DEFF76EF08F0AC2933
:1013420008E1AD29D8B4A8EF09F0AAEF09F03DEF02
:101352000AF020EE9FF000EE6EF00C0EDBCFEBFFFA
:10136200E806FCE2AEC07BF0AFC07CF0C2EC12F04B
:101372009DC068F09EC069F0000E00016B6F0D0EFB
:101382006A6FF5EC19F0E00E00016825D96E0C0EBB
:101392006921DA6EAEC0DEFFAFC0DDFFAEC068F01D
:1013A200AFC069F0000E6B6F0D0E6A6FF5EC19F0AD
:1013B200E00E00016825D96E0C0E6921DA6EACC010
:1013C200DEFFADC0DDFFAEC068F0AFC069F0000E59
:1013D2006B6F0D0E6A6FF5EC19F0E20E00016825D5
:1013E200D96E0C0E6921DA6EDECF8DF0DECF8EF073
:1013F200DECF8FF0DECF90F0ACC068F0ADC069F008
:10140200000E6B6F0D0E6A6FF5EC19F0E20E000123
:101412006825D96E0C0E6921DA6EDECF91F0DECF2F
:1014220092F0DECF93F0DECF94F08D51915D956F07
:101432008E519259966F8F519359976F905194593B
:10144200986FACC068F0ADC069F0000E6B6F0D0E06
:101452006A6FF5EC19F0E20E00016825D96E0C0EE8
:101462006921DA6E95C0DEFF96C0DEFF97C0DEFF0F
:1014720098C0DEFF76EF08F0AC2906E1AD29D8A4CA
:1014820045EF0AF047EF0AF06EEF0AF020EE9FF008
:1014920000EE6EF00C0EDBCFEBFFE806FCE2AEC016
:1014A2007BF0AFC07CF0C2EC12F09DC068F09EC031
:1014B20069F0000E00016B6F0D0E6A6FF5EC19F00A
:1014C200E00E00016825D96E0C0E6921DA6EAEC0FD
:1014D200DEFFAFC0DDFF76EF08F076EF08F082693D
:1014E200836912001BC001F01CC002F01DC003F092
:1014F2001EC004F01FC005F020C006F021C007F096
:1015020022C008F023C009F024C00AF025C00BF065
:1015120043EC19F020EE38F00C0EEBCFDBFFE806BF
:10152200FCE2BCEC16F001C047F002C048F04728CC
:1015320008E14828D8B4A0EF0AF0A2EF0AF0A5EF1C
:101542000CF00001F12906E1F229D8A4ABEF0AF070
:10155200ADEF0AF0C4EF0AF047C0F1F048C0F2F074
:1015620020EE38F000EE07F00C0EDBCFEBFFE806C2
:10157200FCE2F1C014F0F2C015F0EFEC13F0A5EFAD
:101582000CF0A5EF0CF0F1C045F0F2C046F0F1C04E
:1015920036F0F2C037F0000E336E010E326E10EFED
:1015A2000BF045C036F046C037F045C001F046C0EA
:1015B20002F0000E046E0D0E036E09EC1AF0E00E3E
:1015C2000124D96E0C0E0220DA6EDECF45F0DDCF9B
:1015D20046F0324A332A36C001F037C002F0000E1C
:1015E200046E0D0E036E09EC1AF0E20E0124D96EA0
:1015F2000C0E0220DA6EDECF26F0DECF27F0DECF31
:1016020028F0DECF29F026503A5C3A6E27503B583C
:101612003B6E28503C583C6E29503D583D6E0001AF
:10162200E851325C3350800A266EE951800A26580E
:10163200D8B01EEF0BF020EF0BF043EF0BF045C0DC
:1016420001F046C002F0000E046E0D0E036E09ECAE
:101652001AF0E20E0124D96E0C0E0220DA6EDE5070
:101662003A5CDE503B58DE503C583D50800A2A6EB0
:10167200DE50800A2A58D8B041EF0BF043EF0BF04E
:10168200D2EF0AF00001F151451807E1F251461874
:10169200D8A44EEF0BF050EF0BF0E1EF0BF020EE81
:1016A20038F000EE07F00C0EDBCFEBFFE806FCE2B1
:1016B20047C014F048C015F0EFEC13F047C001F03A
:1016C20048C002F0000E046E0D0E036E09EC1AF013
:1016D200E00E0124D96E0C0E0220DA6EF1C0DEFF9C
:1016E200F2C0DDFF47C0F1F048C0F2F047C001F0A0
:1016F20048C002F0000E046E0D0E036E09EC1AF0E3
:10170200E00E0124D96E0C0E0220DA6EDECF34F028
:10171200DDCF35F047C001F048C002F0000E046E84
:101722000D0E036E09EC1AF0E20E0124D96E0C0EB6
:101732000220DA6EDECF26F0DECF27F0DECF28F0F1
:10174200DECF29F034C001F035C002F0000E046E85
:101752000D0E036E09EC1AF0E20E0124D96E0C0E86
:101762000220DA6EDECF2AF0DECF2BF0DECF2CF0B5
:10177200DECF2DF026502A5C2E6E27502B582F6E6E
:1017820028502C58306E29502D58316E34C001F03B
:1017920035C002F0000E046E0D0E036E09EC1AF055
:1017A200E20E0124D96E0C0E0220DA6E2EC0DEFF8C
:1017B2002FC0DEFF30C0DEFF31C0DEFFA5EF0CF030
:1017C200452808E14628D8B4E9EF0BF0EBEF0BF01F
:1017D20078EF0CF020EE38F000EE07F00C0EDBCFC5
:1017E200EBFFE806FCE247C014F048C015F0EFEC4E
:1017F20013F036C001F037C002F0000E046E0D0E79
:10180200036E09EC1AF0E00E0124D96E0C0E0220D0
:10181200DA6E47C0DEFF48C0DDFF47C001F048C0B6
:1018220002F0000E046E0D0E036E09EC1AF0E00ECB
:101832000124D96E0C0E0220DA6E45C0DEFF46C0CE
:10184200DDFF47C001F048C002F0000E046E0D0E2D
:10185200036E09EC1AF0E20E0124D96E0C0E02207E
:10186200DA6EDECF26F0DECF27F0DECF28F0DECF35
:1018720029F045C001F046C002F0000E046E0D0EC4
:10188200036E09EC1AF0E20E0124D96E0C0E02204E
:10189200DA6EDECF2AF0DECF2BF0DECF2CF0DECFF9
:1018A2002DF026502A5C2E6E27502B582F6E285072
:1018B2002C58306E29502D58316E45C001F046C06B
:1018C20002F0000E046E0D0E036E09EC1AF0E20E29
:1018D2000124D96E0C0E0220DA6E2EC0DEFF2FC05C
:1018E200DEFF30C0DEFF31C0DEFFA5EF0CF0452881
:1018F20006E14628D8A480EF0CF082EF0CF0C2EF8C
:101902000AF020EE38F000EE07F00C0EDBCFEBFF12
:10191200E806FCE247C014F048C015F0EFEC13F003
:1019220036C001F037C002F0000E046E0D0E036ED9
:1019320009EC1AF0E00E0124D96E0C0E0220DA6EC8
:1019420047C0DEFF48C0DDFF12000001D805D911F3
:10195200D8A4AEEF0CF0B0EF0CF082EF0DF0C65150
:10196200C711D8A4B7EF0CF0B9EF0CF082EF0DF06D
:10197200EA51D8A4BFEF0CF0C1EF0CF00DEF0DF05F
:10198200010EEA6F010EDBEC17F0000E0001726F20
:10199200000E716F430E736F100E746F85EC19F0A9
:1019A200000E0001716F000E706F070E726FDCC0C7
:1019B20068F0DDC069F0000E6B6F0A0E6A6FFBEC17
:1019C20016F000016851300F736FFAEC18F0000E38
:1019D2000001716F000E706F080E726FDCC068F04C
:1019E200DDC069F0000E6B6F0A0E6A6F10EC18F022
:1019F20000016851300F736FFAEC18F0000E00010D
:101A0200726F010E716F230E736F100E746F85EC7F
:101A120019F08C927BEF0DF0EA05D8A413EF0DF0CC
:101A220015EF0DF028EF0DF0020EEA6F010EDBEC60
:101A320017F0000E0001726F010E716F340E736F9A
:101A4200100E746F85EC19F08C827BEF0DF0020E94
:101A5200EA19D8A42FEF0DF031EF0DF07BEF0DF066
:101A6200000EEA6F010EDBEC17F0000E0001726F40
:101A7200000E716F4A0E736F100E746F85EC19F0C1
:101A8200000E0001716F000E706F060E726FDEC0E5
:101A920068F0DFC069F0000E6B6F0A0E6A6FFBEC34
:101AA20016F000016851300F736FFAEC18F0000E57
:101AB2000001716F000E706F070E726FDEC068F06A
:101AC200DFC069F0000E6B6F0A0E6A6F10EC18F03F
:101AD20000016851300F736FFAEC18F0000E00012C
:101AE200726F010E716F230E736F100E746F85EC9F
:101AF20019F08C92000E0001C76F010EC66F98EFAD
:101B02000DF0D851D911D8A489EF0DF08BEF0DF05B
:101B120098EF0DF0C605C711D8A492EF0DF094EF1F
:101B22000DF098EF0DF0000EC76F000EC66FD605D0
:101B3200D711D8A49FEF0DF0A1EF0DF073EF0EF0C7
:101B4200C451C511D8A4A8EF0DF0AAEF0DF073EFA0
:101B52000EF0EA51D8A4B0EF0DF0B2EF0DF00CEF99
:101B62000EF0010EDBEC17F0000E0001726F000E9A
:101B7200716F4A0E736F100E746F85EC19F0000EC0
:101B82000001716F000E706F060E726FDEC068F09A
:101B9200DFC069F0000E6B6F0A0E6A6FFBEC16F085
:101BA20000016851300F736FFAEC18F0000E00015B
:101BB200716F000E706F070E726FDEC068F0DFC0CB
:101BC20069F0000E6B6F0A0E6A6F10EC18F00001DC
:101BD2006851300F736FFAEC18F0000E0001726F4B
:101BE200010E716F230E736F100E746F85EC19F076
:101BF200050E0001DE25686F000EDF21696F000E01
:101C02006B6F640E6A6F10EC18F068C0DEF069C08A
:101C1200DFF06CEF0EF0EA05D8A412EF0EF014EF2D
:101C22000EF06CEF0EF0010EDBEC17F0050E00016A
:101C3200DC25686F000EDD21696F000E6B6F640E8C
:101C42006A6F10EC18F068C0DCF069C0DDF0000EBD
:101C52000001726F000E716F430E736F100E746F7E
:101C620085EC19F0000E0001716F000E706F070E07
:101C7200726FDCC068F0DDC069F0000E6B6F0A0E97
:101C82006A6FFBEC16F000016851300F736FFAECCB
:101C920018F0000E0001716F000E706F080E726F67
:101CA200DCC068F0DDC069F0000E6B6F0A0E6A6F6F
:101CB20010EC18F000016851300F736FFAEC18F055
:101CC200000E0001726F010E716F230E736F100E02
:101CD200746F85EC19F0000E0001C56F010EC46F20
:101CE20089EF0EF0D651D711D8A47AEF0EF07CEF1F
:101CF2000EF089EF0EF0C405C511D8A483EF0EF0E3
:101D020085EF0EF089EF0EF0000EC56F000EC46F66
:101D12001200020E0001EA19D8A492EF0EF094EF1D
:101D22000EF064EF0FF0F0BF9FEF0EF0F05108E1FC
:101D3200EF05D8A09FEF0EF0A1EF0EF0DEEF0EF050
:101D4200EB51D8A4A7EF0EF0A9EF0EF0CAEF0EF0F8
:101D5200DE51E25DDF51E359D8B0B2EF0EF0B4EFDD
:101D62000EF0C0EF0EF0000E726F000E716F010EDA
:101D7200736F100E746F85EC19F0C4EF0EF0000E45
:101D8200F06F010EEF6F0001EF07D8A0F007F8EF38
:101D92000EF0EB05D8A4D0EF0EF0D2EF0EF0F8EF74
:101DA2000EF0000E726F000E716F120E736F100E36
:101DB200746F85EC19F0C4EF0EF0000EF06F140E84
:101DC200EF6FEB51D8A4E8EF0EF0EAEF0EF0EEEF72
:101DD2000EF0010EEB6FF8EF0EF0EB05D8A4F4EF66
:101DE2000EF0F6EF0EF0F8EF0EF0000EEB6FDA05E4
:101DF200DB11D8A4FFEF0EF001EF0FF039EF0FF077
:101E0200000E716F000E706F0D0E726FECC068F0F5
:101E1200696B000E6B6F0A0E6A6F8CEC13F0000197
:101E22006851300F736FFAEC18F0000E0001716FF9
:101E3200000E706F0E0E726FECC068F0696B000ED0
:101E42006B6F0A0E6A6FA9EC14F000016851300F33
:101E5200736FFAEC18F0000E0001716F000E706FD4
:101E62000F0E726F200E736FFAEC18F0C1EF0FF0C5
:101E7200DA51DB11D8A440EF0FF042EF0FF0C1EFBF
:101E82000FF0000E716F000E706F0D0E726F4F0E1D
:101E9200736FFAEC18F0000E0001716F000E706F94
:101EA2000E0E726F460E736FFAEC18F0000E000100
:101EB200716F000E706F0F0E726F460E736FFAEC39
:101EC20018F0C1EF0FF0EA51D8A46AEF0FF06CEFEF
:101ED2000FF0C1EF0FF0ED05EE11D8A473EF0FF084
:101EE20075EF0FF0C1EF0FF0010EDBEC17F0000EF3
:101EF2000001726F000E716F4A0E736F100E746FD5
:101F020085EC19F0000E0001716F000E706F060E65
:101F1200726FDEC068F0DFC069F0000E6B6F0A0EF0
:101F22006A6FFBEC16F000016851300F736FFAEC28
:101F320018F0000E0001716F000E706F070E726FC5
:101F4200DEC068F0DFC069F0000E6B6F0A0E6A6FC8
:101F520010EC18F000016851300F736FFAEC18F0B2
:101F6200000E0001726F010E716F230E736F100E5F
:101F7200746F85EC19F0000E0001EE6F000EED6F2C
:101F82001200F1C001F0F2C002F0000E046E0D0E5C
:101F9200036E09EC1AF0E20E0124D96E0C0E022037
:101FA200DA6EDE50DE10DE10DE10D8B4DBEF0FF09A
:101FB200DDEF0FF0ADEF10F0F1C001F0F2C002F072
:101FC200000E046E0D0E036E09EC1AF0E20E0124EF
:101FD200D96E0C0E0220DA6EF60EDE24496EFF0E6A
:101FE200DE204A6EFF0EDE204B6EFF0EDE204C6EB0
:101FF200F1C001F0F2C002F0000E046E0D0E036E8D
:1020020009EC1AF0E20E0124D96E0C0E0220DA6EEF
:1020120049C0DEFF4AC0DEFF4BC0DEFF4CC0DEFF20
:10202200C8EF10F0F1C001F0F2C002F0000E046E31
:102032000D0E036E09EC1AF0EA0E0124D96E0C0E95
:102042000220DA6EDECF58F0DECF59F0DDCF5AF043
:1020520058C007F059C008F05AC009F05AEC15F000
:10206200F1C001F0F2C002F0000E046E0D0E036E1C
:1020720009EC1AF0E60E0124D96E0C0E0220DA6E7B
:10208200DECF4DF0DECF4EF0DECF4FF0DECF50F0A0
:10209200F1C001F0F2C002F0000E046E0D0E036EEC
:1020A20009EC1AF0E60E0124D96E0C0E0220DA6E4B
:1020B200DECF51F0DECF52F0DECF53F0DECF54F060
:1020C200F1C001F0F2C002F0000E046E0D0E036EBC
:1020D20009EC1AF0EA0E0124D96E0C0E0220DA6E17
:1020E200DECF55F0DECF56F0DDCF57F0F1C05BF01A
:1020F200F2C05CF0F1C001F0F2C002F0000E046E1A
:102102000D0E036E09EC1AF0E00E0124D96E0C0ECE
:102112000220DA6EDECFF1F0DDCFF2F05BC007F025
:102122005CC008F028EC13F04DC01BF04EC01CF050
:102132004FC01DF050C01EF051C01FF052C020F021
:1021420053C021F054C022F055C023F056C024F0F1
:1021520057C025F073EC0AF0F1C001F0F2C002F0B2
:10216200000E046E0D0E036E09EC1AF0E20E01244D
:10217200D96E0C0E0220DA6EDE50DE10DE10DE109A
:10218200D8B4C6EF10F0C8EF10F013EF10F0120041
:1021920095908C90410E00016C6FEE0EE82EFED7EA
:1021A2006C2FFCD700F08C80100EE82EFED700D0EA
:1021B2009580000E5E6E640E5D6EECEF10F05D5069
:1021C2005E10D8A4E7EF10F0E9EF10F0ECEF10F09A
:1021D200000E52EF11F083B0F1EF10F0F3EF10F0B8
:1021E200E0EF10F0000E5E6E640E5D6E04EF11F013
:1021F2005D505E10D8A400EF11F002EF11F004EF71
:1022020011F0E9EF10F083A009EF11F00CEF11F0DB
:10221200010E0DEF11F0000E00016C6F6D6B6CB1D1
:1022220015EF11F017EF11F0F9EF10F0000E5E6EDE
:10223200640E5D6E28EF11F05D505E10D8A424EF9D
:1022420011F026EF11F028EF11F0E9EF10F083B052
:102252002DEF11F02FEF11F01DEF11F053EC11F0F3
:102262000001E66F53EC11F00001E76F53EC11F03F
:102272000001E46F53EC11F00001E56F53EC11F033
:1022820000016E6FE751E525E625E4256F6F6E517B
:102292006F19D8A44FEF11F051EF11F0E9EF10F0E0
:1022A200010E1200000E00016B6F000E5E6E640ED6
:1022B2005D6E68EF11F05D505E10D8A463EF11F00F
:1022C20065EF11F068EF11F0000ED6EF11F083A068
:1022D2006DEF11F070EF11F0010E71EF11F0000EC1
:1022E200686F696B68B178EF11F07AEF11F05CEF0B
:1022F20011F0190EE82EFED783A082EF11F085EFC0
:1023020011F0010E86EF11F0000E0001686F696B8B
:1023120068A18EEF11F090EF11F0A3EF11F06B5165
:102322000708686F010E696F682B9AEF11F0D89059
:102332006937682F98EF11F000016951FF0A6A1797
:10234200C4EF11F06B510708686F010E696F682BBB
:10235200ADEF11F0D8906937682FABEF11F00001A3
:1023620069516A13000E5E6E640E5D6EC4EF11F069
:102372005D505E10D8A4C0EF11F0C2EF11F0C4EFAF
:1023820011F065EF11F083B0C9EF11F0CBEF11F04E
:10239200B9EF11F000016B2B070E6B65D3EF11F053
:1023A200D5EF11F056EF11F06A51120050EC12F015
:1023B200A4EC19F0000E0001B06F000EB16F000E18
:1023C200B26F000EB36FF40EB46F010EB56F000E54
:1023D200B66F000EB76F4C0EB86F190EB96F000EC4
:1023E200BA6FDCEC19F0E80E0001B06F030EB16FAA
:1023F200000EB26F000EB36FF40EB46F010EB56F24
:10240200000EB66F000EB76F140EB86F1D0EB96FC7
:10241200000EBA6FDCEC19F0E80E0001B06F030E8B
:10242200B16F000EB26F000EB36FE80EB46F030E01
:10243200B56F000EB66F000EB76F620EB86F2B0E3F
:10244200B96F000EBA6FDCEC19F05EEC1AF0000105
:10245200D1BF34EF12F0D15108E1D005D8A034EF4A
:1024620012F036EF12F028EF12F03CEC16F070C0CA
:10247200BDF071C0BEF072C0BFF002D84CEF12F0D6
:102482000500FA6E0001BD51FD6EBE51FE6EBF51D8
:10249200FF6EFA50120028EF12F007EF00F0000171
:1024A200F169F269000EE96F000EE86F000E6F6FBE
:1024B200000E6E6F6EC068F06FC069F0000E6B6F39
:1024C2000D0E6A6FF5EC19F0E00E00016825D96E69
:1024D2000C0E6921DA6EFF0EDE6EFF0EDD6E6EC02F
:1024E20068F06FC069F0000E6B6F0D0E6A6FF5EC4D
:1024F20019F0E20E00016825D96E0C0E6921DA6E20
:10250200DE6ADE6ADE6ADD6A6EC068F06FC069F09C
:10251200000E6B6F0D0E6A6FF5EC19F0E60E0001FE
:102522006825D96E0C0E6921DA6EDE6ADE6ADE6A11
:10253200DD6A6EC068F06FC069F0000E6B6F0D0E41
:102542006A6FF5EC19F0EA0E00016825D96E0C0EDF
:102552006921DA6E000EDE6E000EDE6E000EDE6E99
:102562006E4B6F2B6FBFBFEF12F06F5109E1140E6C
:102572006E5DD8A0BFEF12F0C1EF12F05BEF12F068
:1025820012007BC068F07CC069F0000E00016B6F26
:102592000D0E6A6FF5EC19F0E00E00016825D96E98
:1025A2000C0E6921DA6E6EC0DEFF6FC0DDFF20EE19
:1025B20070F07BC068F07CC069F0000E6B6F0D0E8E
:1025C2006A6FF5EC19F0E20E00016825E16E0C0E5F
:1025D2006921E26EDECFE6FFDECFE6FFDECFE6FF69
:1025E200DECFE6FF20EE74F07BC068F07CC069F0BD
:1025F200000E6B6F0D0E6A6FF5EC19F0E60E00011E
:102602006825E16E0C0E6921E26EDECFE6FFDECFB9
:10261200E6FFDECFE6FFDECFE6FF20EE78F07BC0FE
:1026220068F07CC069F0000E6B6F0D0E6A6FF5ECFE
:1026320019F0EA0E00016825E16E0C0E6921E26EC6
:10264200DECFE6FFDECFE6FFDECFE6FF120007C0F9
:1026520001F008C002F0000E046E0D0E036E09ECCC
:102662001AF0E00E0124D96E0C0E0220DA6EFF0E73
:10267200DE6EFF0EDD6E07C001F008C002F0000E34
:10268200046E0D0E036E09EC1AF0E20E0124D96EEF
:102692000C0E0220DA6EDE6ADE6ADE6ADD6A07C0CE
:1026A20001F008C002F0000E046E0D0E036E09EC7C
:1026B2001AF0E60E0124D96E0C0E0220DA6EDE6AE2
:1026C200DE6ADE6ADD6A07C001F008C002F0000EB1
:1026D200046E0D0E036E09EC1AF0EA0E0124D96E97
:1026E2000C0E0220DA6E000EDE6E000EDE6E000EA2
:1026F200DE6ED8900734D96E0834DA6E000ED92611
:10270200010EDA22000EDE6E000EDD6E0001E80719
:10271200D8A0E9071200000E00016D6F6BBF96EFA3
:1027220013F094EF13F09CEF13F06A6D6B1FD8B0A7
:102732006B2B010E6D6F69BFA3EF13F0A1EF13F0C6
:10274200A9EF13F0686D691FD8B0692B010E6D1BDC
:10275200000E6F6F000E6E6F6A516B11D8B4B4EF3A
:1027620013F0B6EF13F0DEEF13F0010E6C6FBEEF55
:1027720013F0D8906A376B376C2B6BAFC3EF13F043
:10278200C5EF13F0BAEF13F0D8906E376F376A5176
:10279200685D6B516959D8A0D1EF13F0D3EF13F0F4
:1027A200D8EF13F06A51685F6B51695B6E81D89004
:1027B2006B336A336C2FC5EF13F06D51D8B4E4EF6D
:1027C20013F0E6EF13F0EAEF13F06E6D6F1FD8B05F
:1027D2006F2B6EC068F06FC069F0120014C001F078
:1027E20015C002F0000E046E0D0E036E09EC1AF015
:1027F200E00E0124D96E0C0E0220DA6E07C0DEFF55
:1028020008C0DDFF20EE09F014C001F015C002F08F
:10281200000E046E0D0E036E09EC1AF0E20E012496
:10282200E16E0C0E0220E26EDECFE6FFDECFE6FFA7
:10283200DECFE6FFDECFE6FF20EE0DF014C001F0A2
:1028420015C002F0000E046E0D0E036E09EC1AF0B4
:10285200E60E0124E16E0C0E0220E26EDECFE6FFF0
:10286200DECFE6FFDECFE6FFDECFE6FF20EE11F0A1
:1028720014C001F015C002F0000E046E0D0E036EBE
:1028820009EC1AF0EA0E0124E16E0C0E0220E26E4F
:10289200DECFE6FFDECFE6FFDECFE6FF1200000E60
:1028A2000001716F010E706F050E726FE4C068F067
:1028B200696B000E6B6F0A0E6A6F8CEC13F00001ED
:1028C2006851300F736FFAEC18F0000E0001716F4F
:1028D200010E706F060E726FE4C068F0696B000E35
:1028E2006B6F0A0E6A6FA9EC14F000016851300F89
:1028F200736FFAEC18F0000E0001716F010E706F29
:102902000E0E726FE6C068F0696B000E6B6F0A0EF6
:102912006A6F8CEC13F000016851300F736FFAECA0
:1029220018F0000E0001716F010E706F0F0E726FC2
:10293200E6C068F0696B000E6B6F0A0E6A6FA9EC55
:1029420014F000016851300F736FFAEC18F01200A6
:10295200000E00016D6F69BFB3EF14F0B1EF14F018
:10296200B9EF14F0686D691FD8B0692B010E6D6F55
:102972006BBFC0EF14F0BEEF14F0C4EF14F06A6D39
:102982006B1FD8B06B2B6A516B11D8B4CBEF14F01C
:10299200CDEF14F0F1EF14F0010E6C6FD5EF14F0DF
:1029A200D8906A376B376C2B6BAFDAEF14F0DCEF31
:1029B20014F0D1EF14F06A51685D6B516959D8A0D7
:1029C200E5EF14F0E7EF14F0EBEF14F06A51685FF3
:1029D2006B51695BD8906B336A336C2FDCEF14F068
:1029E2006D51D8B4F7EF14F0F9EF14F0FDEF14F0D5
:1029F200686D691FD8B0692B68C068F069C069F05A
:102A02001200000E066E02BE0BEF15F009EF15F074
:102A120011EF15F0016C021ED8B0022A010E066EEB
:102A220004BE18EF15F016EF15F01CEF15F0036C4D
:102A3200041ED8B0042A03500410D8B423EF15F0B2
:102A420025EF15F049EF15F0010E056E2DEF15F08B
:102A5200D89003360436052A04AE32EF15F034EF6F
:102A620015F029EF15F00350015C04500258D8A06C
:102A72003DEF15F03FEF15F043EF15F00350015E07
:102A82000450025AD89004320332052E34EF15F066
:102A92000650D8B44FEF15F051EF15F055EF15F081
:102AA200016C021ED8B0022A01C001F002C002F07D
:102AB20012000001D42906E1D529D8A463EF15F04C
:102AC20065EF15F087EF15F0000ED56F000ED46F8D
:102AD200000ED36F000ED26FD04BD12BD4C001F0B9
:102AE200D5C002F0000E046E030E036E09EC1AF05C
:102AF200280E0124D96E010E0220DA6E07C0DEFF15
:102B020008C0DEFF09C0DEFFB0EF15F0010ED225CE
:102B1200016E000ED321026E030E046EE80E036EE8
:102B220002EC15F001C0D2F002C0D3F00001D04B8C
:102B3200D12BD2C001F0D3C002F0000E046E030EFE
:102B4200036E09EC1AF0280E0124D96E010E022040
:102B5200DA6E07C0DEFF08C0DEFF09C0DEFF12002A
:102B6200020E0001EA19D8A4B9EF15F0BBEF15F077
:102B7200F6EF15F0C9EC10F00009D8A4C3EF15F078
:102B8200C5EF15F0C7EF15F0F6EF15F050EC14F0A5
:102B9200E4C0E2F00001E36BE6C0E0F0E16BE0517B
:102BA200DC5DE151DD59D8B0D9EF15F0DBEF15F05E
:102BB200E1EF15F0000EDB6F010EDA6FE5EF15F0B5
:102BC200000EDB6F000EDA6FE15109E15A0EE05D93
:102BD200D8A0EEEF15F0F0EF15F0F4EF15F0640E5B
:102BE200EC6FF6EF15F0E6C0ECF012000600E9CF4C
:102BF20060F0EACF61F0E1CF62F0E2CF63F0D9CFCB
:102C020064F0DACF65F0F3CF66F0F4CF67F0F2A4A8
:102C12000DEF16F00FEF16F02AEF16F0F2AA14EFEE
:102C220016F016EF16F02AEF16F073EC18F043ECDC
:102C320018F05D505E10D8B421EF16F023EF16F0B5
:102C420026EF16F05D06D8A05E06C1EC19F054EC32
:102C52001AF067C0F4FF66C0F3FF65C0DAFF64C014
:102C6200D9FF63C0E2FF62C0E1FF61C0EAFF60C05A
:102C7200E9FF5F921100D4C068F0D5C069F0000E80
:102C820000016B6F030E6A6FF5EC19F0280E00015C
:102C92006825D96E010E6921DA6EDECF73F0DECFC0
:102CA20074F0DDCF75F0D007D8A0D107D051D11183
:102CB200D8A45EEF16F060EF16F06AEF16F0A6ECFD
:102CC20017F073C070F074C071F075C072F07CEFD1
:102CD20016F0010ED425686F000ED521696F030E20
:102CE2006B6FE80E6A6FA9EC14F068C0D4F069C08B
:102CF200D5F062EF16F01200000E00016D6F000EAB
:102D02006C6FD8906C35D96E6D35DA6E000ED9269F
:102D1200010EDA22DE50DE10D8A492EF16F094EF04
:102D220016F0A9EF16F0D8906C35D96E6D35DA6EC3
:102D3200000ED926010EDA22010EDE6E000EDD6EC5
:102D4200E84BE92B6CC068F06DC069F0BBEF16F080
:102D52006C4B6D2B6DBFB7EF16F06D5109E1140E80
:102D62006C5DD8A0B7EF16F0B9EF16F082EF16F04F
:102D7200686969691200000E066E000E056ED89031
:102D82000534D96E0634DA6E000ED926010EDA2227
:102D9200DE50DE10D8A4D0EF16F0D2EF16F0E8EF36
:102DA20016F0D8900534D96E0634DA6E000ED926A4
:102DB200010EDA22010EDE6E000EDD6E0001E84B1E
:102DC200E92B05C001F006C002F0FAEF16F0054A41
:102DD200062A06BEF6EF16F0065009E1140E055C4F
:102DE200D8A0F6EF16F0F8EF16F0C0EF16F0016873
:102DF20002681200000E00016D6F000E6C6F6A51C6
:102E02006B11D8B407EF17F009EF17F031EF17F095
:102E1200010E6E6F11EF17F0D8906A376B376E2B79
:102E22006BAF16EF17F018EF17F00DEF17F0D89001
:102E32006C376D376A51685D6B516959D8A024EFC0
:102E420017F026EF17F02BEF17F06A51685F6B51FE
:102E5200695B6C81D8906B336A336E2F18EF17F071
:102E62006CC068F06DC069F012000001686F68C044
:102E72006AF0000E0001696F68AF42EF17F044EF8D
:102E820017F047EF17F08B8A48EF17F08B9A8BA851
:102E92004DEF17F04FEF17F053EF17F0D8806A3766
:102EA20056EF17F06A516A256A6F8B8600F000F0C0
:102EB20000F000F000F000F000F000F000F000F090
:102EC20000F000F08B960001D8906837692B070E4E
:102ED20069656EEF17F070EF17F03DEF17F0120013
:102EE20000016E6F800E00016B6F120E1CEC1AF067
:102EF200040E00016D6F3D0EE82EFED76D2FFCD73C
:102F020000D06EC06BF0130E1CEC1AF0040E000120
:102F12006D6F3D0EE82EFED76D2FFCD700D0C00E90
:102F220000016B6F120E1CEC1AF0040E00016D6FA3
:102F32003D0EE82EFED76D2FFCD700D0000E00010B
:102F42006B6F120E1CEC1AF012000001D469D569E5
:102F5200D269D369000ED16F000ED06F000E6F6F71
:102F6200000E6E6F6EC068F06FC069F0000E6B6F7E
:102F7200030E6A6FF5EC19F0280E00016825D96E70
:102F8200010E6921DA6E000EDE6E000EDE6E000E9C
:102F9200DE6E6E4B6F2B6FBFD8EF17F0E80E6E5DD3
:102FA200030E6F59D8A0D8EF17F0DAEF17F0B3EF8E
:102FB20017F0120000016E6F000E00016B6F120E0F
:102FC2001CEC1AF0040E00016D6F3D0EE82EFED7C8
:102FD2006D2FFCD700D06EC06BF0130E1CEC1AF0F4
:102FE200040E00016D6F3D0EE82EFED76D2FFCD74B
:102FF20000D0400E00016B6F120E1CEC1AF0040E92
:1030020000016D6F3D0EE82EFED76D2FFCD700D06C
:10301200000E00016B6F120E1CEC1AF01200000180
:103022006A516B11D8B418EF18F01AEF18F03EEF8E
:1030320018F0010E6C6F22EF18F0D8906A376B37D8
:103042006C2B6BAF27EF18F029EF18F01EEF18F07A
:103052006A51685D6B516959D8A032EF18F034EFAC
:1030620018F038EF18F06A51685F6B51695BD890BD
:103072006B336A336C2F29EF18F068C068F069C0AF
:1030820069F01200C8C0CAF0C9C0CBF081B04CEFE1
:1030920018F050EF18F0016A012A51EF18F0016A96
:1030A20001500001C86FC96BCC51CE1907E1CD5157
:1030B200CF19D8A45FEF18F061EF18F06EEF18F097
:1030C20081B066EF18F068EF18F06EEF18F0000E9E
:1030D200D76F010ED66F72EF18F0000ED76F000E89
:1030E200D66F1200CCC0CEF0CDC0CFF080BA7CEF4C
:1030F20018F080EF18F0016A012A81EF18F0016AD6
:1031020001500001CC6FCD6BCC51CE1907E1CD51EE
:10311200CF19D8A48FEF18F091EF18F09EEF18F0A6
:1031220080BA96EF18F098EF18F09EEF18F0000EA4
:10313200D96F010ED86FA2EF18F0000ED96F000EF2
:10314200D86F1200B40EF66E340EF76E000EF86EE3
:1031520000EEEDF010EE08F00900F5CFEEFFE550BD
:10316200E150FAE101EE28F01CEEBCF0EE6AE55007
:10317200E150FCE1E250FAE101EE00F0280EEE6AC5
:10318200E806FDE100EEC0F02D0EEE6AE806FDE174
:103192005E6A5D6A5F905F920001D7EF11F03BECCF
:1031A2001AF0979C8E9C8E8C000E2CEC1AF0010E5D
:1031B2002CEC1AF0000E00016B6F120E1CEC1AF0D0
:1031C200310E00016F6FB20EE82EFED76F2FFCD7C3
:1031D20000F0320EDBEC17F03C0EDBEC17F00C0EBD
:1031E200DBEC17F0010EDBEC17F0060EDBEC17F050
:1031F2001200000170517111D8A402EF19F004EF0E
:1032020019F00EEF19F07251800FDBEC17F000018C
:10321200735171EC17F01FEF19F070057111D8A4FA
:1032220015EF19F017EF19F01FEF19F07251C00FD7
:10323200DBEC17F00001735171EC17F01200000182
:103242007569766968C077F069C078F06AC079F00C
:103252006BC07AF06CC07BF06DC07CF06EC07DF00C
:103262006FC07EF070C07FF071C080F072C081F0DC
:1032720020EE75F000EE68F00C0EDBCFEBFFE806F7
:10328200FCE212000E680F6801C010F002C011F0DB
:1032920003C012F004C013F005C014F006C015F00C
:1032A20007C016F008C017F009C018F00AC019F0DC
:1032B2000BC01AF020EE0EF000EE01F00C0EDBCF88
:1032C200EBFFE806FCE2120074EF19F06FC0F6FFA4
:1032D20070C0F7FF000EF86E0800F55071EC17F0A1
:1032E20000016F4B702B6FC0F6FF70C0F7FF000E2E
:1032F200F86E0800F5500009D8A482EF19F084EFA7
:1033020019F067EF19F01200000171517211D8A47F
:103312008DEF19F08FEF19F09AEF19F0800EDBECB8
:1033220017F073C06FF074C070F065EC19F0A3EF82
:1033320019F0C00EDBEC17F073C06FF074C070F0C0
:1033420065EC19F01200D0EC18F0F28E730ED36E09
:103352000F0E9B6E928A938095920F0EC16E8C9285
:10336200000E0001DF6F000EDE6F000EDD6F000E3B
:10337200DC6F4CEC1AF044EC1AF0A6EC17F01200D9
:103382000001D1BFD0EF19F0E80ED05D030ED15984
:10339200D8B0CEEF19F0D0EF19F0DBEF19F0E85109
:1033A200E911D8B4D7EF19F0D9EF19F0DBEF19F022
:1033B200C2EC0FF01200B0C082F0B1C083F0B2C014
:1033C20084F0B3C085F0B4C086F0B5C087F0B6C053
:1033D20088F0B7C089F0B8C08AF0B9C08BF0BAC023
:1033E2008CF029EC08F01200000168516A03F3CF57
:1033F2006CF0F4CF6DF068516B03F3506D27695197
:103402006A03F3506D276CC068F06DC069F012005A
:1034120001500302F3CF05F0F4CF06F0015004028D
:10342200F350062602500302F350062605C001F0AF
:1034320006C002F0120000016C6F8994400E36EC57
:1034420017F000016C5136EC17F000016B5136ECAD
:1034520017F08984120000016B6F8994400E36ECDC
:1034620017F000016B5136EC17F0000E36EC17F036
:103472008984120092949488949A949689848B8871
:103482008B9A8B961200810ECD6E9E90B10ECF6EEE
:10349200E00ECE6E1200C70ED56E000ED76EB20EC3
:1034A200D66EF2941200F294000ED76EB20ED66E61
:0E34B200120001001400FFFF0100F28A120058
:020000040020DA
:08000000FFFFFFFFFFFFFFFF00
:020000040030CA
:0E000000FF09191EF38381FFFFC0FFE0FF40E0
:00000001FF
