:020000040000FA
:0400000007EF00F016
:0A0008005F8275ED14F081EF16F031
:10100000004E6F7468696E6720202046333A2020B6
:10101000200048656174696E6720202046333A20BD
:1010200020200050756D7020686561742046333A49
:10103000202020004F46462020202020202046331C
:101040003A20200054656D703A20202048756D6963
:10105000643A000082C068F083C069F084C06AF01E
:1010600085C06BF086C06CF087C06DF088C06EF0F4
:1010700089C06FF08AC070F08BC071F08CC072F0C4
:10108000FEEC16F020EE9FF00C0EEBCFDBFFE80637
:10109000FCE2F9EC14F068C0AEF069C0AFF00001FA
:1010A000AE2908E1AF29D8B458EF08F05AEF08F09C
:1010B00071EF0AF0EB2906E1EC29D8A462EF08F001
:1010C00064EF08F07DEF08F0AEC0EBF0AFC0ECF0DD
:1010D00020EE9FF000EE6EF00C0EDBCFEBFFE8068B
:1010E000FCE2EBC07BF0ECC07CF0F0EC10F0AEC0AA
:1010F00082F0AFC083F073EF0AF0EBC0ACF0ECC04D
:10110000ADF0EBC09DF0ECC09EF0000E9A6F010EAA
:10111000996FCBEF08F0ACC09DF0ADC09EF0ACC0B5
:1011200068F0ADC069F0000E6B6F0D0E6A6FD5EC04
:1011300017F0E00E00016825D96E0C0E6921DA6EF9
:10114000DECFACF0DDCFADF0994B9A2B9DC068F0AF
:101150009EC069F0000E6B6F0D0E6A6FD5EC17F034
:10116000E20E00016825D96E0C0E6921DA6EDECF21
:101170008DF0DECF8EF0DECF8FF0DECF90F08D5190
:10118000A15DA16F8E51A259A26F8F51A359A36F78
:101190009051A459A46FE251995D9A51800A8D6FC4
:1011A000E351800A8D59D8B0D8EF08F0DAEF08F093
:1011B000FEEF08F0ACC068F0ADC069F0000E6B6FD8
:1011C0000D0E6A6FD5EC17F0E20E00016825D96E9E
:1011D0000C0E6921DA6EDE50A15DDE50A259DE50A0
:1011E000A359A451800A916FDE50800A9159D8B05A
:1011F000FCEF08F0FEEF08F08BEF08F0EB51AC19B4
:1012000007E1EC51AD19D8A408EF09F00AEF09F095
:10121000A1EF09F020EE9FF000EE6EF00C0EDBCF98
:10122000EBFFE806FCE2AEC07BF0AFC07CF0F0EC78
:1012300010F0AEC068F0AFC069F0000E00016B6F37
:101240000D0E6A6FD5EC17F0E00E00016825D96E1F
:101250000C0E6921DA6EEBC0DEFFECC0DDFFAEC024
:10126000EBF0AFC0ECF0AEC068F0AFC069F0000EBC
:101270006B6F0D0E6A6FD5EC17F0E00E000168255C
:10128000D96E0C0E6921DA6EDECF9BF0DDCF9CF0BB
:10129000AEC068F0AFC069F0000E6B6F0D0E6A6FE4
:1012A000D5EC17F0E20E00016825D96E0C0E69210D
:1012B000DA6EDECF8DF0DECF8EF0DECF8FF0DECFB8
:1012C00090F09BC068F09CC069F0000E6B6F0D0E33
:1012D0006A6FD5EC17F0E20E00016825D96E0C0E8E
:1012E0006921DA6EDECF91F0DECF92F0DECF93F09F
:1012F000DECF94F08D51915D956F8E519259966F1E
:101300008F519359976F90519459986F9BC068F083
:101310009CC069F0000E6B6F0D0E6A6FD5EC17F074
:10132000E20E00016825D96E0C0E6921DA6E95C0B7
:10133000DEFF96C0DEFF97C0DEFF98C0DEFF77EFCE
:1013400008F0AC2908E1AD29D8B4A9EF09F0ABEF5A
:1013500009F03EEF0AF020EE9FF000EE6EF00C0E6A
:10136000DBCFEBFFE806FCE2AEC07BF0AFC07CF069
:10137000F0EC10F09DC068F09EC069F0000E000116
:101380006B6F0D0E6A6FD5EC17F0E00E000168254B
:10139000D96E0C0E6921DA6EAEC0DEFFAFC0DDFF84
:1013A000AEC068F0AFC069F0000E6B6F0D0E6A6FD3
:1013B000D5EC17F0E00E00016825D96E0C0E6921FE
:1013C000DA6EACC0DEFFADC0DDFFAEC068F0AFC00E
:1013D00069F0000E6B6F0D0E6A6FD5EC17F0E20E20
:1013E00000016825D96E0C0E6921DA6EDECF8DF012
:1013F000DECF8EF0DECF8FF0DECF90F0ACC068F0A5
:10140000ADC069F0000E6B6F0D0E6A6FD5EC17F072
:10141000E20E00016825D96E0C0E6921DA6EDECF6E
:1014200091F0DECF92F0DECF93F0DECF94F08D51CD
:10143000915D956F8E519259966F8F519359976F19
:1014400090519459986FACC068F0ADC069F0000E2F
:101450006B6F0D0E6A6FD5EC17F0E20E0001682578
:10146000D96E0C0E6921DA6E95C0DEFF96C0DEFFE4
:1014700097C0DEFF98C0DEFF77EF08F0AC2906E1E9
:10148000AD29D8A446EF0AF048EF0AF06FEF0AF052
:1014900020EE9FF000EE6EF00C0EDBCFEBFFE806C7
:1014A000FCE2AEC07BF0AFC07CF0F0EC10F09DC071
:1014B00068F09EC069F0000E00016B6F0D0E6A6F40
:1014C000D5EC17F0E00E00016825D96E0C0E6921ED
:1014D000DA6EAEC0DEFFAFC0DDFF77EF08F077EF6A
:1014E00008F08269836912001BC001F01CC002F081
:1014F0001DC003F01EC004F01FC005F020C006F0A0
:1015000021C007F022C008F023C009F024C00AF06F
:1015100025C00BF021EC17F020EE38F00C0EEBCFCD
:10152000DBFFE806FCE238EC15F001C047F002C032
:1015300048F0472808E14828D8B4A1EF0AF0A3EF03
:101540000AF0A6EF0CF00001EB2906E1EC29D8A483
:10155000ACEF0AF0AEEF0AF0C5EF0AF047C0EBF0CF
:1015600048C0ECF020EE38F000EE07F00C0EDBCFB8
:10157000EBFFE806FCE2EBC014F0ECC015F01DEC4C
:1015800012F0A6EF0CF0A6EF0CF0EBC045F0ECC0AB
:1015900046F0EBC036F0ECC037F0000E336E010EB3
:1015A000326E11EF0BF045C036F046C037F045C043
:1015B00001F046C002F0000E046E0D0E036EE9EC61
:1015C00017F0E00E0124D96E0C0E0220DA6EDECF89
:1015D00045F0DDCF46F0324A332A36C001F037C03D
:1015E00002F0000E046E0D0E036EE9EC17F0E20E31
:1015F0000124D96E0C0E0220DA6EDECF26F0DECF8B
:1016000027F0DECF28F0DECF29F026503A5C3A6E84
:1016100027503B583B6E28503C583C6E29503D5853
:101620003D6E0001E251325C3350800A266EE35178
:10163000800A2658D8B01FEF0BF021EF0BF044EFD3
:101640000BF045C001F046C002F0000E046E0D0E16
:10165000036EE9EC17F0E20E0124D96E0C0E0220A5
:10166000DA6EDE503A5CDE503B58DE503C583D505E
:10167000800A2A6EDE50800A2A58D8B042EF0BF05A
:1016800044EF0BF0D3EF0AF00001EB51451807E1EE
:10169000EC514618D8A44FEF0BF051EF0BF0E2EFEE
:1016A0000BF020EE38F000EE07F00C0EDBCFEBFF76
:1016B000E806FCE247C014F048C015F01DEC12F03B
:1016C00047C001F048C002F0000E046E0D0E036E1C
:1016D000E9EC17F0E00E0124D96E0C0E0220DA6E50
:1016E000EBC0DEFFECC0DDFF47C0EBF048C0ECF024
:1016F00047C001F048C002F0000E046E0D0E036EEC
:10170000E9EC17F0E00E0124D96E0C0E0220DA6E1F
:10171000DECF34F0DDCF35F047C001F048C002F035
:10172000000E046E0D0E036EE9EC17F0E20E0124BC
:10173000D96E0C0E0220DA6EDECF26F0DECF27F057
:10174000DECF28F0DECF29F034C001F035C002F042
:10175000000E046E0D0E036EE9EC17F0E20E01248C
:10176000D96E0C0E0220DA6EDECF2AF0DECF2BF01F
:10177000DECF2CF0DECF2DF026502A5C2E6E2750C7
:101780002B582F6E28502C58306E29502D58316E02
:1017900034C001F035C002F0000E046E0D0E036E71
:1017A000E9EC17F0E20E0124D96E0C0E0220DA6E7D
:1017B0002EC0DEFF2FC0DEFF30C0DEFF31C0DEFFF7
:1017C000A6EF0CF0452808E14628D8B4EAEF0BF064
:1017D000ECEF0BF079EF0CF020EE38F000EE07F0B4
:1017E0000C0EDBCFEBFFE806FCE247C014F048C06C
:1017F00015F01DEC12F036C001F037C002F0000EFB
:10180000046E0D0E036EE9EC17F0E00E0124D96EA4
:101810000C0E0220DA6E47C0DEFF48C0DDFF47C075
:1018200001F048C002F0000E046E0D0E036EE9ECEC
:1018300017F0E00E0124D96E0C0E0220DA6E45C0BE
:10184000DEFF46C0DDFF47C001F048C002F0000ED9
:10185000046E0D0E036EE9EC17F0E20E0124D96E52
:101860000C0E0220DA6EDECF26F0DECF27F0DECFC0
:1018700028F0DECF29F045C001F046C002F0000E8E
:10188000046E0D0E036EE9EC17F0E20E0124D96E22
:101890000C0E0220DA6EDECF2AF0DECF2BF0DECF88
:1018A0002CF0DECF2DF026502A5C2E6E27502B58C0
:1018B0002F6E28502C58306E29502D58316E45C04F
:1018C00001F046C002F0000E046E0D0E036EE9EC4E
:1018D00017F0E20E0124D96E0C0E0220DA6E2EC033
:1018E000DEFF2FC0DEFF30C0DEFF31C0DEFFA6EF1F
:1018F0000CF0452806E14628D8A481EF0CF083EFD0
:101900000CF0C3EF0AF020EE38F000EE07F00C0EFA
:10191000DBCFEBFFE806FCE247C014F048C015F04F
:101920001DEC12F036C001F037C002F0000E046E5C
:101930000D0E036EE9EC17F0E00E0124D96E0C0ECB
:101940000220DA6E47C0DEFF48C0DDFF1200000152
:10195000E405D8A4AEEF0CF0B0EF0CF082EF0DF080
:10196000EABFBBEF0CF0EA5108E1E905D8A0BBEFF4
:101970000CF0BDEF0CF000EF0DF0E551D8A4C3EF73
:101980000CF0C5EF0CF0ECEF0CF0DD5107E1640E4C
:10199000DC5DD8B0CEEF0CF0D0EF0CF0DCEF0CF04B
:1019A000000E726F000E716F120E736F100E746F57
:1019B00082EC17F0E6EF0CF0000E726F000E716F04
:1019C000010E736F100E746F82EC17F00001E907BF
:1019D000D8A0EA071AEF0DF0E505D8A4F2EF0CF055
:1019E000F4EF0CF01AEF0DF0000E726F000E716F35
:1019F000230E736F100E746F82EC17F0E6EF0CF08D
:101A0000000EEA6F140EE96FE551D8A40AEF0DF04D
:101A10000CEF0DF010EF0DF0010EE56F1AEF0DF069
:101A2000E505D8A416EF0DF018EF0DF01AEF0DF044
:101A3000000EE56FD805D911D8A421EF0DF023EFE2
:101A40000DF05BEF0DF0000E716F000E706F0D0E5C
:101A5000726FE6C068F0696B000E6B6F0A0E6A6FFA
:101A6000BAEC11F000016851300F736FD8EC16F02A
:101A7000000E0001716F000E706F0E0E726FE6C0E7
:101A800068F0696B000E6B6F0A0E6A6FD7EC12F08C
:101A900000016851300F736FD8EC16F0000E000192
:101AA000716F000E706F0F0E726F200E736FD8EC97
:101AB00016F07BEF0DF0000E716F000E706F0D0EC3
:101AC000726F4F0E736FD8EC16F0000E0001716F3D
:101AD000000E706F0E0E726F460E736FD8EC16F01C
:101AE000000E0001716F000E706F0F0E726F460EC8
:101AF000736FD8EC16F0000E0001E86F010EE76F6F
:101B0000EFEF0DF0E451D8A488EF0DF08AEF0DF05F
:101B1000EFEF0DF0E705E811D8A491EF0DF093EF8A
:101B20000DF0EFEF0DF0000E726F000E716F340EBE
:101B3000736F100E746F82EC17F0000E0001716F5E
:101B4000000E706F0D0E726F4F0E736FD8EC16F0A3
:101B5000000E0001716F000E706F0E0E726F460E58
:101B6000736FD8EC16F0000E0001716F000E706FED
:101B70000F0E726F460E736FD8EC16F0000E000158
:101B8000716F010E706F050E726F300E736FD8ECAF
:101B900016F0000E0001716F010E706F060E726F6D
:101BA000300E736FD8EC16F0000E0001716F010E4D
:101BB000706F0E0E726F300E736FD8EC16F0000E51
:101BC0000001716F010E706F0F0E726F300E736F28
:101BD000D8EC16F0000E0001E86F000EE76F12005F
:101BE000EBC001F0ECC002F0000E046E0D0E036EAF
:101BF000E9EC17F0E20E0124D96E0C0E0220DA6E29
:101C0000DE50DE10DE10DE10D8B409EF0EF00BEF60
:101C10000EF0DBEF0EF0EBC001F0ECC002F0000EB6
:101C2000046E0D0E036EE9EC17F0E20E0124D96E7E
:101C30000C0E0220DA6EF60EDE24496EFF0EDE2058
:101C40004A6EFF0EDE204B6EFF0EDE204C6EEBC0A8
:101C500001F0ECC002F0000E046E0D0E036EE9EC14
:101C600017F0E20E0124D96E0C0E0220DA6E49C084
:101C7000DEFF4AC0DEFF4BC0DEFF4CC0DEFFF6EFEA
:101C80000EF0EBC001F0ECC002F0000E046E0D0E81
:101C9000036EE9EC17F0EA0E0124D96E0C0E022057
:101CA000DA6EDECF58F0DECF59F0DDCF5AF058C0F3
:101CB00007F059C008F05AC009F088EC13F0EBC0E7
:101CC00001F0ECC002F0000E046E0D0E036EE9ECA4
:101CD00017F0E60E0124D96E0C0E0220DA6EDECF6C
:101CE0004DF0DECF4EF0DECF4FF0DECF50F0EBC048
:101CF00001F0ECC002F0000E046E0D0E036EE9EC74
:101D000017F0E60E0124D96E0C0E0220DA6EDECF3B
:101D100051F0DECF52F0DECF53F0DECF54F0EBC007
:101D200001F0ECC002F0000E046E0D0E036EE9EC43
:101D300017F0EA0E0124D96E0C0E0220DA6EDECF07
:101D400055F0DECF56F0DDCF57F0EBC05BF0ECC0C6
:101D50005CF0EBC001F0ECC002F0000E046E0D0E62
:101D6000036EE9EC17F0E00E0124D96E0C0E022090
:101D7000DA6EDECFEBF0DDCFECF05BC007F05CC0DD
:101D800008F056EC11F04DC01BF04EC01CF04FC0D7
:101D90001DF050C01EF051C01FF052C020F053C0C3
:101DA00021F054C022F055C023F056C024F057C093
:101DB00025F074EC0AF0EBC001F0ECC002F0000E6C
:101DC000046E0D0E036EE9EC17F0E20E0124D96EDD
:101DD0000C0E0220DA6EDE50DE10DE10DE10D8B4FB
:101DE000F4EF0EF0F6EF0EF041EF0EF012009590CA
:101DF0008C90410E00016C6FEE0EE82EFED76C2F1A
:101E0000FCD700F08C80100EE82EFED700D0958015
:101E1000000E5E6E640E5D6E1AEF0FF05D505E1088
:101E2000D8A415EF0FF017EF0FF01AEF0FF0000E18
:101E300080EF0FF083B01FEF0FF021EF0FF00EEFE8
:101E40000FF0000E5E6E640E5D6E32EF0FF05D50AF
:101E50005E10D8A42EEF0FF030EF0FF032EF0FF03E
:101E600017EF0FF083A037EF0FF03AEF0FF0010EEE
:101E70003BEF0FF0000E00016C6F6D6B6CB143EF28
:101E80000FF045EF0FF027EF0FF0000E5E6E640EBF
:101E90005D6E56EF0FF05D505E10D8A452EF0FF05C
:101EA00054EF0FF056EF0FF017EF0FF083B05BEF2A
:101EB0000FF05DEF0FF04BEF0FF081EC0FF0000132
:101EC000E06F81EC0FF00001E16F81EC0FF0000199
:101ED000DE6F81EC0FF00001DF6F81EC0FF000018D
:101EE0006E6FE151DF25E025DE256F6F6E516F19B2
:101EF000D8A47DEF0FF07FEF0FF017EF0FF0010E7A
:101F00001200000E00016B6F000E5E6E640E5D6EBF
:101F100096EF0FF05D505E10D8A491EF0FF093EFA5
:101F20000FF096EF0FF0000E04EF10F083A09BEF80
:101F30000FF09EEF0FF0010E9FEF0FF0000E686F95
:101F4000696B68B1A6EF0FF0A8EF0FF08AEF0FF002
:101F5000190EE82EFED783A0B0EF0FF0B3EF0FF00D
:101F6000010EB4EF0FF0000E0001686F696B68A1FD
:101F7000BCEF0FF0BEEF0FF0D1EF0FF06B51070881
:101F8000686F010E696F682BC8EF0FF0D890693742
:101F9000682FC6EF0FF000016951FF0A6A17F2EFD0
:101FA0000FF06B510708686F010E696F682BDBEF4C
:101FB0000FF0D8906937682FD9EF0FF00001695101
:101FC0006A13000E5E6E640E5D6EF2EF0FF05D50F0
:101FD0005E10D8A4EEEF0FF0F0EF0FF0F2EF0FF07D
:101FE00093EF0FF083B0F7EF0FF0F9EF0FF0E7EF9B
:101FF0000FF000016B2B070E6B6501EF10F003EF84
:1020000010F084EF0FF06A5112007EEC10F063ECD8
:1020100017F0000E0001B06F000EB16F000EB26F2E
:10202000000EB36FF40EB46F010EB56F000EB66FF5
:10203000000EB76F5A0EB86F280EB96F000EBA6F48
:10204000BCEC17F0E80E0001B06F030EB16F000E8C
:10205000B26F000EB36FF40EB46F010EB56F000EC9
:10206000B66F000EB76F4E0EB86F190EB96F000E37
:10207000BA6FBCEC17F0E80E0001B06F030EB16F41
:10208000000EB26F000EB36FE80EB46F030EB56FA3
:10209000000EB66F000EB76FBE0EB86F270EB96F89
:1020A000000EBA6FBCEC17F03EEC18F00001CFBF89
:1020B00062EF10F0CF5108E1CE05D8A062EF10F02A
:1020C00064EF10F056EF10F0B8EC14F070C0BDF0F3
:1020D00071C0BEF072C0BFF002D87AEF10F00500F8
:1020E000FA6E0001BD51FD6EBE51FE6EBF51FF6E16
:1020F000FA50120056EF10F007EF00F00001EB6904
:10210000EC69000EE36F000EE26F000E6F6F000EC1
:102110006E6F6EC068F06FC069F0000E6B6F0D0ED1
:102120006A6FD5EC17F0E00E00016825D96E0C0E31
:102130006921DA6EFF0EDE6EFF0EDD6E6EC068F096
:102140006FC069F0000E6B6F0D0E6A6FD5EC17F063
:10215000E20E00016825D96E0C0E6921DA6EDE6A86
:10216000DE6ADE6ADD6A6EC068F06FC069F0000E7C
:102170006B6F0D0E6A6FD5EC17F0E60E0001682547
:10218000D96E0C0E6921DA6EDE6ADE6ADE6ADD6AFD
:102190006EC068F06FC069F0000E6B6F0D0E6A6F55
:1021A000D5EC17F0EA0E00016825D96E0C0E6921F6
:1021B000DA6E000EDE6E000EDE6E000EDE6E6E4B10
:1021C0006F2B6FBFEDEF10F06F5109E1140E6E5DD4
:1021D000D8A0EDEF10F0EFEF10F089EF10F0120043
:1021E0007BC068F07CC069F0000E00016B6F0D0EC3
:1021F0006A6FD5EC17F0E00E00016825D96E0C0E61
:102200006921DA6E6EC0DEFF6FC0DDFF20EE70F078
:102210007BC068F07CC069F0000E6B6F0D0E6A6FBA
:10222000D5EC17F0E20E00016825E16E0C0E692175
:10223000E26EDECFE6FFDECFE6FFDECFE6FFDECFEB
:10224000E6FF20EE74F07BC068F07CC069F0000E01
:102250006B6F0D0E6A6FD5EC17F0E60E0001682566
:10226000E16E0C0E6921E26EDECFE6FFDECFE6FF07
:10227000DECFE6FFDECFE6FF20EE78F07BC068F031
:102280007CC069F0000E6B6F0D0E6A6FD5EC17F015
:10229000EA0E00016825E16E0C0E6921E26EDECFC8
:1022A000E6FFDECFE6FFDECFE6FF120007C001F05B
:1022B00008C002F0000E046E0D0E036EE9EC17F07C
:1022C000E00E0124D96E0C0E0220DA6EFF0EDE6ED7
:1022D000FF0EDD6E07C001F008C002F0000E046EB4
:1022E0000D0E036EE9EC17F0E20E0124D96E0C0E10
:1022F0000220DA6EDE6ADE6ADE6ADD6A07C001F09D
:1023000008C002F0000E046E0D0E036EE9EC17F02B
:10231000E60E0124D96E0C0E0220DA6EDE6ADE6A49
:10232000DE6ADD6A07C001F008C002F0000E046E2C
:102330000D0E036EE9EC17F0EA0E0124D96E0C0EB7
:102340000220DA6E000EDE6E000EDE6E000EDE6E15
:10235000D8900734D96E0834DA6E000ED926010EF3
:10236000DA22000EDE6E000EDD6E0001E207D8A05C
:10237000E3071200000E00016D6F6BBFC4EF11F098
:10238000C2EF11F0CAEF11F06A6D6B1FD8B06B2B62
:10239000010E6D6F69BFD1EF11F0CFEF11F0D7EFE4
:1023A00011F0686D691FD8B0692B010E6D1B000E0E
:1023B0006F6F000E6E6F6A516B11D8B4E2EF11F0BF
:1023C000E4EF11F00CEF12F0010E6C6FECEF11F076
:1023D000D8906A376B376C2B6BAFF1EF11F0F3EFDE
:1023E00011F0E8EF11F0D8906E376F376A51685DE1
:1023F0006B516959D8A0FFEF11F001EF12F006EF11
:1024000012F06A51685F6B51695B6E81D8906B33D3
:102410006A336C2FF3EF11F06D51D8B412EF12F054
:1024200014EF12F018EF12F06E6D6F1FD8B06F2B13
:102430006EC068F06FC069F0120014C001F015C0E2
:1024400002F0000E046E0D0E036EE9EC17F0E00EC4
:102450000124D96E0C0E0220DA6E07C0DEFF08C020
:10246000DDFF20EE09F014C001F015C002F0000EEF
:10247000046E0D0E036EE9EC17F0E20E0124E16E1E
:102480000C0E0220E26EDECFE6FFDECFE6FFDECFEF
:10249000E6FFDECFE6FF20EE0DF014C001F015C020
:1024A00002F0000E046E0D0E036EE9EC17F0E60E5E
:1024B0000124E16E0C0E0220E26EDECFE6FFDECFDD
:1024C000E6FFDECFE6FFDECFE6FF20EE11F014C020
:1024D00001F015C002F0000E046E0D0E036EE9EC63
:1024E00017F0EA0E0124E16E0C0E0220E26EDECF40
:1024F000E6FFDECFE6FFDECFE6FF1200000E0001B2
:10250000716F010E706F050E726FDEC068F0696B3F
:10251000000E6B6F0A0E6A6FBAEC11F00001685181
:10252000300F736FD8EC16F0000E0001716F010EC2
:10253000706F060E726FDEC068F0696B000E6B6F15
:102540000A0E6A6FD7EC12F000016851300F736FFA
:10255000D8EC16F0000E0001716F010E706F0E0EB8
:10256000726FE0C068F0696B000E6B6F0A0E6A6FE5
:10257000BAEC11F000016851300F736FD8EC16F00F
:10258000000E0001716F010E706F0F0E726FE0C0D0
:1025900068F0696B000E6B6F0A0E6A6FD7EC12F071
:1025A00000016851300F736FD8EC16F01200000E66
:1025B00000016D6F69BFE1EF12F0DFEF12F0E7EF9E
:1025C00012F0686D691FD8B0692B010E6D6F6BBF7B
:1025D000EEEF12F0ECEF12F0F2EF12F06A6D6B1FFB
:1025E000D8B06B2B6A516B11D8B4F9EF12F0FBEF36
:1025F00012F01FEF13F0010E6C6F03EF13F0D89081
:102600006A376B376C2B6BAF08EF13F00AEF13F0E0
:10261000FFEF12F06A51685D6B516959D8A013EF52
:1026200013F015EF13F019EF13F06A51685F6B5157
:10263000695BD8906B336A336C2F0AEF13F06D51DE
:10264000D8B425EF13F027EF13F02BEF13F0686DDC
:10265000691FD8B0692B68C068F069C069F01200C2
:10266000000E066E02BE39EF13F037EF13F03FEFA6
:1026700013F0016C021ED8B0022A010E066E04BED1
:1026800046EF13F044EF13F04AEF13F0036C041E0F
:10269000D8B0042A03500410D8B451EF13F053EF0C
:1026A00013F077EF13F0010E056E5BEF13F0D89087
:1026B00003360436052A04AE60EF13F062EF13F020
:1026C00057EF13F00350015C04500258D8A06BEF91
:1026D00013F06DEF13F071EF13F00350015E04502F
:1026E000025AD89004320332052E62EF13F00650DE
:1026F000D8B47DEF13F07FEF13F083EF13F0016C8C
:10270000021ED8B0022A01C001F002C002F012007D
:102710000001D22906E1D329D8A491EF13F093EF59
:1027200013F0B5EF13F0000ED36F000ED26F000E52
:10273000D16F000ED06FCE4BCF2BD2C001F0D3C0E3
:1027400002F0000E046E030E036EE9EC17F0280E83
:102750000124D96E010E0220DA6E07C0DEFF08C028
:10276000DEFF09C0DEFFDEEF13F0010ED025016EA3
:10277000000ED121026E030E046EE80E036E30ECE3
:1027800013F001C0D0F002C0D1F00001CE4BCF2B2E
:10279000D0C001F0D1C002F0000E046E030E036E33
:1027A000E9EC17F0280E0124D96E010E0220DA6E32
:1027B00007C0DEFF08C0DEFF09C0DEFF1200000117
:1027C000E405D8A4E6EF13F0E8EF13F02CEF14F0D3
:1027D000F7EC0EF00009D8A4F0EF13F0F2EF13F0CD
:1027E000FDEF13F0010E0001DD6F000EDC6F010E36
:1027F000DB6F000EDA6F2CEF14F07EEC12F0DEC00F
:10280000DCF00001DD6BE0C0DAF0DB6BDB5109E1ED
:102810002F0EDA5DD8A00FEF14F011EF14F017EFC0
:1028200014F0000ED96F010ED86F1BEF14F0000EDC
:10283000D96F000ED86FDB5109E15A0EDA5DD8A0CE
:1028400024EF14F026EF14F02AEF14F0640EE66F74
:102850002CEF14F0E0C0E6F012000001D605D7110D
:10286000D8A435EF14F037EF14F05EEF14F0C45134
:10287000C511D8A43EEF14F040EF14F05EEF14F051
:10288000E405D8A446EF14F048EF14F04DEF14F02F
:10289000000EE46F8C9258EF14F0E451D8A453EF7B
:1028A00014F055EF14F058EF14F0010EE46F8C8221
:1028B000000EC56F010EC46F74EF14F0D651D7111E
:1028C000D8A465EF14F067EF14F074EF14F0C405AA
:1028D000C511D8A46EEF14F070EF14F074EF14F07B
:1028E000000EC56F000EC46F12000600E9CF60F045
:1028F000EACF61F0E1CF62F0E2CF63F0D9CF64F0CC
:10290000DACF65F0F3CF66F0F4CF67F0F2A48BEF87
:1029100014F08DEF14F0A6EF14F0F2AA92EF14F079
:1029200094EF14F0A6EF14F051EC16F05D505E1029
:10293000D8B49DEF14F09FEF14F0A2EF14F05D06F1
:10294000D8A05E06A1EC17F034EC18F067C0F4FFD5
:1029500066C0F3FF65C0DAFF64C0D9FF63C0E2FF61
:1029600062C0E1FF61C0EAFF60C0E9FF5F92110051
:10297000D2C068F0D3C069F0000E00016B6F030E87
:102980006A6FD5EC17F0280E00016825D96E010E8C
:102990006921DA6EDECF73F0DECF74F0DDCF75F033
:1029A000CE07D8A0CF07CE51CF11D8A4DAEF14F0BC
:1029B000DCEF14F0E6EF14F0E7EC15F073C070F004
:1029C00074C071F075C072F0F8EF14F0010ED225EA
:1029D000686F000ED321696F030E6B6FE80E6A6F8C
:1029E000D7EC12F068C0D2F069C0D3F0DEEF14F07B
:1029F0001200000E00016D6F000E6C6FD8906C35E8
:102A0000D96E6D35DA6E000ED926010EDA22DE504F
:102A1000DE10D8A40EEF15F010EF15F025EF15F02D
:102A2000D8906C35D96E6D35DA6E000ED926010E50
:102A3000DA22010EDE6E000EDD6EE24BE32B6CC07F
:102A400068F06DC069F037EF15F06C4B6D2B6DBF02
:102A500033EF15F06D5109E1140E6C5DD8A033EF22
:102A600015F035EF15F0FEEF14F068696969120092
:102A7000000E066E000E056ED8900534D96E063431
:102A8000DA6E000ED926010EDA22DE50DE10D8A44E
:102A90004CEF15F04EEF15F064EF15F0D8900534BB
:102AA000D96E0634DA6E000ED926010EDA22010E36
:102AB000DE6E000EDD6E0001E24BE32B05C001F07F
:102AC00006C002F076EF15F0054A062A06BE72EF40
:102AD00015F0065009E1140E055CD8A072EF15F050
:102AE00074EF15F03CEF15F0016802681200000168
:102AF000686F68C06AF0000E0001696F68AF83EF0D
:102B000015F085EF15F088EF15F08B8A89EF15F039
:102B10008B9A8BA88EEF15F090EF15F094EF15F0CF
:102B2000D8806A3797EF15F06A516A256A6F8B86ED
:102B300000F000F000F000F000F000F000F000F015
:102B400000F000F000F000F08B960001D89068379C
:102B5000692B070E6965AFEF15F0B1EF15F07EEF49
:102B600015F0120000016E6F800E00016B6F120EE7
:102B7000FCEC17F0040E00016D6F3D0EE82EFED741
:102B80006D2FFCD700D06EC06BF0130EFCEC17F06D
:102B9000040E00016D6F3D0EE82EFED76D2FFCD7A1
:102BA00000D0C00E00016B6F120EFCEC17F0040E8B
:102BB00000016D6F3D0EE82EFED76D2FFCD700D0C3
:102BC000000E00016B6F120EFCEC17F012000001FA
:102BD000D269D369D069D169000ECF6F000ECE6F74
:102BE000000E6F6F000E6E6F6EC068F06FC069F000
:102BF000000E6B6F030E6A6FD5EC17F0280E000104
:102C00006825D96E010E6921DA6E000EDE6E000EA7
:102C1000DE6E000EDE6E6E4B6F2B6FBF19EF16F07F
:102C2000E80E6E5D030E6F59D8A019EF16F01BEF7A
:102C300016F0F4EF15F0120000016E6F000E0001A7
:102C40006B6F120EFCEC17F0040E00016D6F3D0E61
:102C5000E82EFED76D2FFCD700D06EC06BF0130EA0
:102C6000FCEC17F0040E00016D6F3D0EE82EFED750
:102C70006D2FFCD700D0400E00016B6F120EFCECE4
:102C800017F0040E00016D6F3D0EE82EFED76D2F7C
:102C9000FCD700D0000E00016B6F120EFCEC17F099
:102CA0001200CAC0CCF0CBC0CDF080BA5AEF16F0FB
:102CB0005EEF16F0016A012A5FEF16F0016A01501B
:102CC0000001CA6FCB6BCA51CC1907E1CB51CD19AA
:102CD000D8A46DEF16F06FEF16F07CEF16F080BA07
:102CE00074EF16F076EF16F07CEF16F0000ED76F4B
:102CF000010ED66F80EF16F0000ED76F000ED66F64
:102D00001200740EF66E300EF76E000EF86E00EEC6
:102D1000E7F010EE08F00900F5CFEEFFE550E150C6
:102D2000FAE101EE28F01CEEBCF0EE6AE550E1504D
:102D3000FCE1E250FAE101EE00F0280EEE6AE8064E
:102D4000FDE100EEC0F0270EEE6AE806FDE15E6AE6
:102D50005D6A5F905F92000105EF10F01BEC18F0C8
:102D6000979C8E9C8E8C000E0CEC18F0010E0CECD7
:102D700018F0000E00016B6F120EFCEC17F0310E14
:102D800000016F6FB20EE82EFED76F2FFCD700F058
:102D9000320E1CEC16F03C0E1CEC16F00C0E1CEC6B
:102DA00016F0010E1CEC16F0060E1CEC16F01200CC
:102DB000000170517111D8A4E0EF16F0E2EF16F0A7
:102DC000ECEF16F07251800F1CEC16F000017351FD
:102DD000B2EC15F0FDEF16F070057111D8A4F3EF09
:102DE00016F0F5EF16F0FDEF16F07251C00F1CEC67
:102DF00016F000017351B2EC15F012000001756974
:102E0000766968C077F069C078F06AC079F06BC005
:102E10007AF06CC07BF06DC07CF06EC07DF06FC04E
:102E20007EF070C07FF071C080F072C081F020EE43
:102E300075F000EE68F00C0EDBCFEBFFE806FCE26D
:102E400012000E680F6801C010F002C011F003C03C
:102E500012F004C013F005C014F006C015F007C04E
:102E600016F008C017F009C018F00AC019F00BC01E
:102E70001AF020EE0EF000EE01F00C0EDBCFEBFFAF
:102E8000E806FCE2120052EF17F06FC0F6FF70C0C8
:102E9000F7FF000EF86E0800F550B2EC15F00001D7
:102EA0006F4B702B6FC0F6FF70C0F7FF000EF86E0F
:102EB0000800F5500009D8A460EF17F062EF17F092
:102EC00045EF17F01200AEEC16F0000E0001726F25
:102ED000010E716F440E736F100E746F82EC17F059
:102EE000F28E730ED36E0F0E9B6E928A9380959224
:102EF0000F0EC16E8C922CEC18F024EC18F0E7EC5D
:102F000015F01200000171517211D8A48AEF17F068
:102F10008CEF17F097EF17F0800E1CEC16F073C0D3
:102F20006FF074C070F043EC17F0A0EF17F0C00E14
:102F30001CEC16F073C06FF074C070F043EC17F027
:102F400012000001CFBFB0EF17F0E80ECE5D030E08
:102F5000CF59D8B0AEEF17F0B0EF17F0BBEF17F0C6
:102F6000E251E311D8B4B7EF17F0B9EF17F0BBEFA8
:102F700017F0F0EC0DF01200B0C082F0B1C083F099
:102F8000B2C084F0B3C085F0B4C086F0B5C087F09D
:102F9000B6C088F0B7C089F0B8C08AF0B9C08BF06D
:102FA000BAC08CF02AEC08F01200000168516A03E4
:102FB000F3CF6CF0F4CF6DF068516B03F3506D27D5
:102FC00069516A03F3506D276CC068F06DC069F0F9
:102FD000120001500302F3CF05F0F4CF06F00150C8
:102FE0000402F350062602500302F350062605C0E1
:102FF00001F006C002F0120000016C6F8994400ECF
:1030000077EC15F000016C5177EC15F000016B5175
:1030100077EC15F08984120000016B6F8994400EE3
:1030200077EC15F000016B5177EC15F0000E77ECA2
:1030300015F08984120092949488949A94968984C5
:103040008B888B9A8B961200810ECD6E9E90B10E5E
:10305000CF6EE00ECE6E1200C70ED56E000ED76E8C
:10306000B20ED66EF2941200F294000ED76EB20E2B
:10307000D66E120001001400FFFF0100F28A120058
:020000040020DA
:08000000FFFFFFFFFFFFFFFF00
:020000040030CA
:0E000000FF09191EF38381FFFFC0FFE0FF40E0
:00000001FF
